{
  "contractName": "BasketManager",
  "abi": [
    {
      "anonymous": false,
      "inputs": [
        {
          "indexed": true,
          "internalType": "address",
          "name": "previousOwner",
          "type": "address"
        },
        {
          "indexed": true,
          "internalType": "address",
          "name": "newOwner",
          "type": "address"
        }
      ],
      "name": "OwnershipTransferred",
      "type": "event"
    },
    {
      "inputs": [],
      "name": "owner",
      "outputs": [
        {
          "internalType": "address",
          "name": "",
          "type": "address"
        }
      ],
      "stateMutability": "view",
      "type": "function"
    },
    {
      "inputs": [],
      "name": "renounceOwnership",
      "outputs": [],
      "stateMutability": "nonpayable",
      "type": "function"
    },
    {
      "inputs": [
        {
          "internalType": "address",
          "name": "newOwner",
          "type": "address"
        }
      ],
      "name": "transferOwnership",
      "outputs": [],
      "stateMutability": "nonpayable",
      "type": "function"
    },
    {
      "inputs": [],
      "name": "initialize",
      "outputs": [],
      "stateMutability": "nonpayable",
      "type": "function"
    },
    {
      "inputs": [
        {
          "internalType": "address",
          "name": "tokenAddress",
          "type": "address"
        }
      ],
      "name": "addAsset",
      "outputs": [],
      "stateMutability": "nonpayable",
      "type": "function"
    },
    {
      "inputs": [
        {
          "internalType": "address",
          "name": "tokenAddress",
          "type": "address"
        }
      ],
      "name": "pauseAsset",
      "outputs": [],
      "stateMutability": "nonpayable",
      "type": "function"
    },
    {
      "inputs": [
        {
          "internalType": "address",
          "name": "tokenAddress",
          "type": "address"
        }
      ],
      "name": "unpauseAsset",
      "outputs": [],
      "stateMutability": "nonpayable",
      "type": "function"
    },
    {
      "inputs": [
        {
          "internalType": "address",
          "name": "tokenAddress",
          "type": "address"
        }
      ],
      "name": "terminateAsset",
      "outputs": [],
      "stateMutability": "nonpayable",
      "type": "function"
    },
    {
      "inputs": [
        {
          "internalType": "address",
          "name": "basketCoreAddress",
          "type": "address"
        }
      ],
      "name": "setBasketCore",
      "outputs": [],
      "stateMutability": "nonpayable",
      "type": "function"
    },
    {
      "inputs": [],
      "name": "getBasketCore",
      "outputs": [
        {
          "internalType": "address",
          "name": "",
          "type": "address"
        }
      ],
      "stateMutability": "view",
      "type": "function"
    },
    {
      "inputs": [
        {
          "internalType": "address",
          "name": "sourceAddress",
          "type": "address"
        },
        {
          "internalType": "address[]",
          "name": "tokenAddresses",
          "type": "address[]"
        },
        {
          "internalType": "uint256[]",
          "name": "amounts",
          "type": "uint256[]"
        }
      ],
      "name": "mint",
      "outputs": [
        {
          "internalType": "uint256",
          "name": "",
          "type": "uint256"
        }
      ],
      "stateMutability": "nonpayable",
      "type": "function"
    },
    {
      "inputs": [
        {
          "internalType": "address",
          "name": "sourceAddress",
          "type": "address"
        },
        {
          "internalType": "uint256",
          "name": "amount",
          "type": "uint256"
        }
      ],
      "name": "redeem",
      "outputs": [
        {
          "internalType": "address[]",
          "name": "tokenAddresses",
          "type": "address[]"
        },
        {
          "internalType": "uint256[]",
          "name": "amounts",
          "type": "uint256[]"
        }
      ],
      "stateMutability": "nonpayable",
      "type": "function"
    }
  ],
  "bytecode": "0x608060405234801561001057600080fd5b50611597806100206000396000f3fe608060405234801561001057600080fd5b50600436106100d45760003560e01c80638da5cb5b11610081578063acb43ce01161005b578063acb43ce014610397578063b2cc7617146103bd578063f2fde38b146103e3576100d4565b80638da5cb5b146102205780639abacb4114610228578063a3bf277e1461024e576100d4565b806344f6dbb2116100b257806344f6dbb2146101ec578063715018a6146102105780638129fc1c14610218576100d4565b80631e9a6950146100d9578063298410e51461019e5780633753b14a146101c6575b600080fd5b610105600480360360408110156100ef57600080fd5b506001600160a01b038135169060200135610409565b604051808060200180602001838103835285818151815260200191508051906020019060200280838360005b83811015610149578181015183820152602001610131565b50505050905001838103825284818151815260200191508051906020019060200280838360005b83811015610188578181015183820152602001610170565b5050505090500194505050505060405180910390f35b6101c4600480360360208110156101b457600080fd5b50356001600160a01b031661080c565b005b6101c4600480360360208110156101dc57600080fd5b50356001600160a01b031661093e565b6101f4610a30565b604080516001600160a01b039092168252519081900360200190f35b6101c4610a3f565b6101c4610ae8565b6101f4610afa565b6101c46004803603602081101561023e57600080fd5b50356001600160a01b0316610b09565b6103856004803603606081101561026457600080fd5b6001600160a01b03823516919081019060408101602082013564010000000081111561028f57600080fd5b8201836020820111156102a157600080fd5b803590602001918460208302840111640100000000831117156102c357600080fd5b919080806020026020016040519081016040528093929190818152602001838360200280828437600092019190915250929594936020810193503591505064010000000081111561031357600080fd5b82018360208201111561032557600080fd5b8035906020019184602083028401116401000000008311171561034757600080fd5b919080806020026020016040519081016040528093929190818152602001838360200280828437600092019190915250929550610bf6945050505050565b60408051918252519081900360200190f35b6101c4600480360360208110156103ad57600080fd5b50356001600160a01b0316610e8d565b6101c4600480360360208110156103d357600080fd5b50356001600160a01b0316610f53565b6101c4600480360360208110156103f957600080fd5b50356001600160a01b0316611072565b60608060026001541415610464576040805162461bcd60e51b815260206004820152601f60248201527f5265656e7472616e637947756172643a207265656e7472616e742063616c6c00604482015290519081900360640190fd5b6002600155826104a55760405162461bcd60e51b815260040180806020018281038252602581526020018061146b6025913960400191505060405180910390fd5b60035460009060609067ffffffffffffffff811180156104c457600080fd5b506040519080825280602002602001820160405280156104ee578160200160208202803683370190505b50905060005b6003548110156105e55760025485516001600160a01b0390911690633aecd0e39087908490811061052157fe5b60200260200101516040518263ffffffff1660e01b815260040180826001600160a01b03166001600160a01b0316815260200191505060206040518083038186803b15801561056f57600080fd5b505afa158015610583573d6000803e3d6000fd5b505050506040513d602081101561059957600080fd5b505182518390839081106105a957fe5b6020026020010181815250506105db8282815181106105c457fe5b60200260200101518461117190919063ffffffff16565b92506001016104f4565b508482116106245760405162461bcd60e51b815260040180806020018281038252602c81526020018061143f602c913960400191505060405180910390fd5b600380548060200260200160405190810160405280929190818152602001828054801561067a57602002820191906000526020600020905b81546001600160a01b0316815260019091019060200180831161065c575b50506003549397505067ffffffffffffffff8311915050801561069c57600080fd5b506040519080825280602002602001820160405280156106c6578160200160208202803683370190505b50925060005b6003548110156107fc57600061070e846107028585815181106106eb57fe5b60200260200101518a6111d490919063ffffffff16565b9063ffffffff61122d16565b60025487519192506001600160a01b031690634be47418908a9089908690811061073457fe5b60200260200101518460006040518563ffffffff1660e01b815260040180856001600160a01b03166001600160a01b03168152602001846001600160a01b03166001600160a01b03168152602001838152602001828152602001945050505050602060405180830381600087803b1580156107ae57600080fd5b505af11580156107c2573d6000803e3d6000fd5b505050506040513d60208110156107d857600080fd5b505185518690849081106107e857fe5b6020908102919091010152506001016106cc565b5050600180555090939092509050565b6000546001600160a01b0316331461086b576040805162461bcd60e51b815260206004820181905260248201527f4f776e61626c653a2063616c6c6572206973206e6f7420746865206f776e6572604482015290519081900360640190fd5b6001600160a01b03811660009081526004602052604081205460ff16600381111561089257fe5b146108ce5760405162461bcd60e51b81526004018080602001828103825260228152602001806114b26022913960400191505060405180910390fd5b60038054600180820183557fc2575a0e9e593c00f959f8c92f12db2869c3395a3b0502d05e2516446f71f85b90910180546001600160a01b0319166001600160a01b03949094169384179055600092835260046020526040909220805460ff191683178155905460001901910155565b6000546001600160a01b0316331461099d576040805162461bcd60e51b815260206004820181905260248201527f4f776e61626c653a2063616c6c6572206973206e6f7420746865206f776e6572604482015290519081900360640190fd5b60016001600160a01b03821660009081526004602052604090205460ff1660038111156109c657fe5b14610a025760405162461bcd60e51b815260040180806020018281038252602381526020018061141c6023913960400191505060405180910390fd5b6001600160a01b038116600090815260046020526040902080546002919060ff19166001835b021790555050565b6002546001600160a01b031690565b6000546001600160a01b03163314610a9e576040805162461bcd60e51b815260206004820181905260248201527f4f776e61626c653a2063616c6c6572206973206e6f7420746865206f776e6572604482015290519081900360640190fd5b600080546040516001600160a01b03909116907f8be0079c531659141344cd1fd0a4f28419497f9722a3daafe3b4186f6b6457e0908390a3600080546001600160a01b0319169055565b610af061126f565b610af861130e565b565b6000546001600160a01b031690565b6000546001600160a01b03163314610b68576040805162461bcd60e51b815260206004820181905260248201527f4f776e61626c653a2063616c6c6572206973206e6f7420746865206f776e6572604482015290519081900360640190fd5b60026001600160a01b03821660009081526004602052604090205460ff166003811115610b9157fe5b14610bcd5760405162461bcd60e51b815260040180806020018281038252602381526020018061141c6023913960400191505060405180910390fd5b6001600160a01b038116600090815260046020526040902080546001919060ff19168280610a28565b600060026001541415610c50576040805162461bcd60e51b815260206004820152601f60248201527f5265656e7472616e637947756172643a207265656e7472616e742063616c6c00604482015290519081900360640190fd5b60026001558151835114610c955760405162461bcd60e51b815260040180806020018281038252602481526020018061153e6024913960400191505060405180910390fd5b60005b8351811015610d7b57600160046000868481518110610cb357fe5b6020908102919091018101516001600160a01b031682528101919091526040016000205460ff166003811115610ce557fe5b14610d215760405162461bcd60e51b815260040180806020018281038252602381526020018061141c6023913960400191505060405180910390fd5b6000838281518110610d2f57fe5b602002602001015111610d735760405162461bcd60e51b81526004018080602001828103825260228152602001806114906022913960400191505060405180910390fd5b600101610c98565b506000805b8451811015610e80576002548551610e76916001600160a01b03169063b3f1c93d908990899086908110610db057fe5b6020026020010151888681518110610dc457fe5b602002602001015160006040518563ffffffff1660e01b815260040180856001600160a01b03166001600160a01b03168152602001846001600160a01b03166001600160a01b03168152602001838152602001828152602001945050505050602060405180830381600087803b158015610e3d57600080fd5b505af1158015610e51573d6000803e3d6000fd5b505050506040513d6020811015610e6757600080fd5b5051839063ffffffff61117116565b9150600101610d80565b5060018055949350505050565b6000546001600160a01b03163314610eec576040805162461bcd60e51b815260206004820181905260248201527f4f776e61626c653a2063616c6c6572206973206e6f7420746865206f776e6572604482015290519081900360640190fd5b6001600160a01b038116610f315760405162461bcd60e51b81526004018080602001828103825260258152602001806114f56025913960400191505060405180910390fd5b600280546001600160a01b0319166001600160a01b0392909216919091179055565b6000546001600160a01b03163314610fb2576040805162461bcd60e51b815260206004820181905260248201527f4f776e61626c653a2063616c6c6572206973206e6f7420746865206f776e6572604482015290519081900360640190fd5b60016001600160a01b03821660009081526004602052604090205460ff166003811115610fdb57fe5b148061100d575060026001600160a01b03821660009081526004602052604090205460ff16600381111561100b57fe5b145b6110485760405162461bcd60e51b815260040180806020018281038252602381526020018061141c6023913960400191505060405180910390fd5b6001600160a01b038116600090815260046020526040902080546003919060ff1916600183610a28565b6000546001600160a01b031633146110d1576040805162461bcd60e51b815260206004820181905260248201527f4f776e61626c653a2063616c6c6572206973206e6f7420746865206f776e6572604482015290519081900360640190fd5b6001600160a01b0381166111165760405162461bcd60e51b81526004018080602001828103825260268152602001806113f66026913960400191505060405180910390fd5b600080546040516001600160a01b03808516939216917f8be0079c531659141344cd1fd0a4f28419497f9722a3daafe3b4186f6b6457e091a3600080546001600160a01b0319166001600160a01b0392909216919091179055565b6000828201838110156111cb576040805162461bcd60e51b815260206004820152601b60248201527f536166654d6174683a206164646974696f6e206f766572666c6f770000000000604482015290519081900360640190fd5b90505b92915050565b6000826111e3575060006111ce565b828202828482816111f057fe5b04146111cb5760405162461bcd60e51b81526004018080602001828103825260218152602001806114d46021913960400191505060405180910390fd5b60006111cb83836040518060400160405280601a81526020017f536166654d6174683a206469766973696f6e206279207a65726f000000000000815250611353565b6000546001600160a01b0316156112cd576040805162461bcd60e51b815260206004820152601c60248201527f4f776e61626c653a20616c726561647920696e697469616c697a656400000000604482015290519081900360640190fd5b600080546001600160a01b0319163390811782556040519091907f8be0079c531659141344cd1fd0a4f28419497f9722a3daafe3b4186f6b6457e0908290a3565b6001541561134d5760405162461bcd60e51b815260040180806020018281038252602481526020018061151a6024913960400191505060405180910390fd5b60018055565b600081836113df5760405162461bcd60e51b81526004018080602001828103825283818151815260200191508051906020019080838360005b838110156113a457818101518382015260200161138c565b50505050905090810190601f1680156113d15780820380516001836020036101000a031916815260200191505b509250505060405180910390fd5b5060008385816113eb57fe5b049594505050505056fe4f776e61626c653a206e6577206f776e657220697320746865207a65726f20616464726573734261736b65744d616e616765723a20496e76616c6964206173736574207374617475734261736b65744d616e616765723a20496e73756666696369656e7420726564656d7074696f6e20746f6b656e4261736b65744d616e616765723a205a65726f20726564656d7074696f6e20616d6f756e744261736b65744d616e616765723a205a65726f206465706f73697420616d6f756e744261736b65744d616e616765723a20417373657420616c7265616479206578697374536166654d6174683a206d756c7469706c69636174696f6e206f766572666c6f774261736b65744d616e616765723a204261736b657420636f7265206973206e6f74207365745265656e7472616e637947756172643a20616c726561647920696e697469616c697a65644261736b65744d616e616765723a20546f6b656e206c656e677468206d69736d61746368a2646970667358221220d94c6572535ad4c0d4c667c30d36d694af40737d136c4c9c246f746f19de065764736f6c63430006080033",
  "source": "// SPDX-License-Identifier: Apache-2.0\npragma solidity 0.6.8;\n\nimport \"@openzeppelin/contracts/math/SafeMath.sol\";\nimport \"./BasketCore.sol\";\nimport \"./Ownable.sol\";\nimport \"./ReentrancyGuard.sol\";\n\n/**\n * @notice The basket manager contract which interacts with basket core to mint and redeem basket tokens.\n */\ncontract BasketManager is Ownable, ReentrancyGuard {\n    using SafeMath for uint256;\n\n    /**\n     * @dev Status of individual underlying asset in the basket.\n     */\n    enum AssetStatus {\n        Invalid,\n        Normal,             // Can increase asset balance.\n        Paused,             // Can't increase asset balance. Can change back to Normal.\n        Terminated          // Can't increase asset balance. Can't change to other status.\n    }\n\n    /**\n     * @dev Data about underlying asset in the basket.\n     */\n    struct Asset {\n        AssetStatus status;\n        uint256 index;\n    }\n\n    BasketCore private _basketCore;\n    address[] private _tokenAddresses;\n    mapping(address => Asset) _tokens;\n\n    /**\n     * @dev Initializes the contract in the proxy.\n     */\n    function initialize() public override(Ownable, ReentrancyGuard) {\n        Ownable.initialize();\n        ReentrancyGuard.initialize();\n    }\n\n    /**\n     * @dev Adds a new underlying token to the basket.\n     */\n    function addAsset(address tokenAddress) public onlyOwner {\n        require(_tokens[tokenAddress].status == AssetStatus.Invalid, \"BasketManager: Asset already exist\");\n        _tokenAddresses.push(tokenAddress);\n        _tokens[tokenAddress].status = AssetStatus.Normal;\n        _tokens[tokenAddress].index = _tokenAddresses.length - 1;\n    }\n\n    /**\n     * @dev Pause the underlying asset. It's balance cannot increase in the BasketCore.\n     */\n    function pauseAsset(address tokenAddress) public onlyOwner {\n        require(_tokens[tokenAddress].status == AssetStatus.Normal, \"BasketManager: Invalid asset status\");\n        _tokens[tokenAddress].status = AssetStatus.Paused;\n    }\n\n    /**\n     * @dev Unpause the underlying asset. It's balance can increase in the BasketCore.\n     */\n    function unpauseAsset(address tokenAddress) public onlyOwner {\n        require(_tokens[tokenAddress].status == AssetStatus.Paused, \"BasketManager: Invalid asset status\");\n        _tokens[tokenAddress].status = AssetStatus.Normal;\n    }\n\n    /**\n     * @dev Terminates an asset. It's balance can increase in the BasketCore, and it's a final status.\n     */\n    function terminateAsset(address tokenAddress) public onlyOwner {\n        require(_tokens[tokenAddress].status == AssetStatus.Normal || _tokens[tokenAddress].status == AssetStatus.Paused,\n            \"BasketManager: Invalid asset status\");\n        _tokens[tokenAddress].status = AssetStatus.Terminated;\n    }\n\n    /**\n     * @dev Updates the BasketCore contract.\n     */\n    function setBasketCore(address basketCoreAddress) public onlyOwner {\n        require(basketCoreAddress != address(0x0), \"BasketManager: Basket core is not set\");\n        _basketCore = BasketCore(basketCoreAddress);\n    }\n\n    /**\n     * @dev Retrieves the BasketCore contract address.\n     */\n    function getBasketCore() public view returns (address) {\n        return address(_basketCore);\n    }\n\n    /**\n     * @dev Mints new basket token.\n     * @param sourceAddress The address of the user who mints new basket tokens.\n     * @param tokenAddresses The addresses of the underlying assets deposited.\n     * @param amounts The amounts of underlying assets deposited.\n     * @return The amount of basket token minted.\n     */\n    function mint(address sourceAddress, address[] memory tokenAddresses, uint256[] memory amounts) public nonReentrant returns (uint256) {\n        require(tokenAddresses.length == amounts.length, \"BasketManager: Token length mismatch\");\n        for (uint256 i = 0; i < tokenAddresses.length; i++) {\n            // If an asset is paused or terminated, it cannot be used to mint new basket token.\n            require(_tokens[tokenAddresses[i]].status == AssetStatus.Normal, \"BasketManager: Invalid asset status\");\n            require(amounts[i] > 0, \"BasketManager: Zero deposit amount\");\n        }\n\n        uint256 mintAmount = 0;\n        for (uint256 i = 0; i < tokenAddresses.length; i++) {\n            // No mint fee.\n            mintAmount = mintAmount.add(_basketCore.mint(sourceAddress, tokenAddresses[i], amounts[i], 0));\n        }\n\n        return mintAmount;\n    }\n\n    /**\n     * @dev Proportionally redeem the basket token.\n     * @param sourceAddress The address of the user who redeems existing basket tokens.\n     * @param amount The amount of basket token to redeem.\n     * @return tokenAddresses The underlying assets and their amounts withdrawn.\n     */\n    function redeem(address sourceAddress, uint256 amount) public nonReentrant returns (address[] memory tokenAddresses, uint256[] memory amounts) {\n        require(amount > 0, \"BasketManager: Zero redemption amount\");\n        uint256 tokenTotalBalance = 0;\n        uint256[] memory tokenBalances = new uint256[](_tokenAddresses.length);\n        for (uint256 i = 0; i < _tokenAddresses.length; i++) {\n            tokenBalances[i] = _basketCore.getTokenBalance(tokenAddresses[i]);\n            tokenTotalBalance = tokenTotalBalance.add(tokenBalances[i]);\n        }\n        require(tokenTotalBalance > amount, \"BasketManager: Insufficient redemption token\");\n\n        tokenAddresses = _tokenAddresses;\n        amounts = new uint256[](_tokenAddresses.length);\n        for (uint256 i = 0; i < _tokenAddresses.length; i++) {\n            uint256 redemptionAmount = amount.mul(tokenBalances[i]).div(tokenTotalBalance);\n            // No redemption fee for proportionally redemption\n            amounts[i] = _basketCore.redeem(sourceAddress, tokenAddresses[i], redemptionAmount, 0);\n        }\n    }\n}",
  "sourcePath": "/Users/shengdading/git/acBTC/contracts/BasketManager.sol",
  "compiler": {
    "name": "solc",
    "version": "0.6.8+commit.0bbfe453.Emscripten.clang"
  },
  "schemaVersion": "3.0.23",
  "updatedAt": "2020-08-23T23:31:08.831Z",
  "devdoc": {
    "methods": {
      "addAsset(address)": {
        "details": "Adds a new underlying token to the basket."
      },
      "getBasketCore()": {
        "details": "Retrieves the BasketCore contract address."
      },
      "initialize()": {
        "details": "Initializes the contract in the proxy."
      },
      "mint(address,address[],uint256[])": {
        "details": "Mints new basket token.",
        "params": {
          "amounts": "The amounts of underlying assets deposited.",
          "sourceAddress": "The address of the user who mints new basket tokens.",
          "tokenAddresses": "The addresses of the underlying assets deposited."
        },
        "returns": {
          "_0": "The amount of basket token minted."
        }
      },
      "owner()": {
        "details": "Returns the address of the current owner."
      },
      "pauseAsset(address)": {
        "details": "Pause the underlying asset. It's balance cannot increase in the BasketCore."
      },
      "redeem(address,uint256)": {
        "details": "Proportionally redeem the basket token.",
        "params": {
          "amount": "The amount of basket token to redeem.",
          "sourceAddress": "The address of the user who redeems existing basket tokens."
        },
        "returns": {
          "tokenAddresses": "The underlying assets and their amounts withdrawn."
        }
      },
      "renounceOwnership()": {
        "details": "Leaves the contract without owner. It will not be possible to call `onlyOwner` functions anymore. Can only be called by the current owner.     * NOTE: Renouncing ownership will leave the contract without an owner, thereby removing any functionality that is only available to the owner."
      },
      "setBasketCore(address)": {
        "details": "Updates the BasketCore contract."
      },
      "terminateAsset(address)": {
        "details": "Terminates an asset. It's balance can increase in the BasketCore, and it's a final status."
      },
      "transferOwnership(address)": {
        "details": "Transfers ownership of the contract to a new account (`newOwner`). Can only be called by the current owner."
      },
      "unpauseAsset(address)": {
        "details": "Unpause the underlying asset. It's balance can increase in the BasketCore."
      }
    }
  },
  "userdoc": {
    "methods": {},
    "notice": "The basket manager contract which interacts with basket core to mint and redeem basket tokens."
  }
}