{
  "contractName": "BasketCore",
  "abi": [
    {
      "anonymous": false,
      "inputs": [
        {
          "indexed": true,
          "internalType": "address",
          "name": "sourceAddress",
          "type": "address"
        },
        {
          "indexed": true,
          "internalType": "address",
          "name": "tokenAddress",
          "type": "address"
        },
        {
          "indexed": false,
          "internalType": "uint256",
          "name": "amount",
          "type": "uint256"
        },
        {
          "indexed": false,
          "internalType": "uint256",
          "name": "mintAmount",
          "type": "uint256"
        }
      ],
      "name": "Minted",
      "type": "event"
    },
    {
      "anonymous": false,
      "inputs": [
        {
          "indexed": true,
          "internalType": "address",
          "name": "previousOwner",
          "type": "address"
        },
        {
          "indexed": true,
          "internalType": "address",
          "name": "newOwner",
          "type": "address"
        }
      ],
      "name": "OwnershipTransferred",
      "type": "event"
    },
    {
      "anonymous": false,
      "inputs": [
        {
          "indexed": true,
          "internalType": "address",
          "name": "sourceAddress",
          "type": "address"
        },
        {
          "indexed": true,
          "internalType": "address",
          "name": "tokenAddress",
          "type": "address"
        },
        {
          "indexed": false,
          "internalType": "uint256",
          "name": "amount",
          "type": "uint256"
        },
        {
          "indexed": false,
          "internalType": "uint256",
          "name": "redemptionAmount",
          "type": "uint256"
        }
      ],
      "name": "Redeemed",
      "type": "event"
    },
    {
      "anonymous": false,
      "inputs": [
        {
          "indexed": true,
          "internalType": "address",
          "name": "sourceAddress",
          "type": "address"
        },
        {
          "indexed": true,
          "internalType": "address",
          "name": "inputToken",
          "type": "address"
        },
        {
          "indexed": true,
          "internalType": "address",
          "name": "outputToken",
          "type": "address"
        },
        {
          "indexed": false,
          "internalType": "uint256",
          "name": "inputAmount",
          "type": "uint256"
        },
        {
          "indexed": false,
          "internalType": "uint256",
          "name": "outputAmount",
          "type": "uint256"
        }
      ],
      "name": "Swapped",
      "type": "event"
    },
    {
      "inputs": [],
      "name": "owner",
      "outputs": [
        {
          "internalType": "address",
          "name": "",
          "type": "address"
        }
      ],
      "stateMutability": "view",
      "type": "function"
    },
    {
      "inputs": [],
      "name": "renounceOwnership",
      "outputs": [],
      "stateMutability": "nonpayable",
      "type": "function"
    },
    {
      "inputs": [
        {
          "internalType": "address",
          "name": "newOwner",
          "type": "address"
        }
      ],
      "name": "transferOwnership",
      "outputs": [],
      "stateMutability": "nonpayable",
      "type": "function"
    },
    {
      "inputs": [
        {
          "internalType": "address",
          "name": "sourceAddress",
          "type": "address"
        },
        {
          "internalType": "address",
          "name": "tokenAddress",
          "type": "address"
        },
        {
          "internalType": "uint256",
          "name": "amount",
          "type": "uint256"
        },
        {
          "internalType": "uint256",
          "name": "feeAmount",
          "type": "uint256"
        }
      ],
      "name": "mint",
      "outputs": [
        {
          "internalType": "uint256",
          "name": "",
          "type": "uint256"
        }
      ],
      "stateMutability": "nonpayable",
      "type": "function"
    },
    {
      "inputs": [
        {
          "internalType": "address",
          "name": "sourceAddress",
          "type": "address"
        },
        {
          "internalType": "address",
          "name": "tokenAddress",
          "type": "address"
        },
        {
          "internalType": "uint256",
          "name": "amount",
          "type": "uint256"
        },
        {
          "internalType": "uint256",
          "name": "feeAmount",
          "type": "uint256"
        }
      ],
      "name": "redeem",
      "outputs": [
        {
          "internalType": "uint256",
          "name": "",
          "type": "uint256"
        }
      ],
      "stateMutability": "nonpayable",
      "type": "function"
    },
    {
      "inputs": [
        {
          "internalType": "address",
          "name": "sourceAddress",
          "type": "address"
        },
        {
          "internalType": "address",
          "name": "inputToken",
          "type": "address"
        },
        {
          "internalType": "address",
          "name": "outputToken",
          "type": "address"
        },
        {
          "internalType": "uint256",
          "name": "amount",
          "type": "uint256"
        },
        {
          "internalType": "uint256",
          "name": "inputFee",
          "type": "uint256"
        },
        {
          "internalType": "uint256",
          "name": "outputFee",
          "type": "uint256"
        }
      ],
      "name": "swap",
      "outputs": [
        {
          "internalType": "uint256",
          "name": "",
          "type": "uint256"
        }
      ],
      "stateMutability": "nonpayable",
      "type": "function"
    }
  ],
  "bytecode": "0x608060405234801561001057600080fd5b5060006100246001600160e01b0361007316565b600080546001600160a01b0319166001600160a01b0383169081178255604051929350917f8be0079c531659141344cd1fd0a4f28419497f9722a3daafe3b4186f6b6457e0908290a350610077565b3390565b61140d806100866000396000f3fe608060405234801561001057600080fd5b50600436106100725760003560e01c80638da5cb5b116100505780638da5cb5b14610117578063b3f1c93d1461013b578063f2fde38b1461017757610072565b80634be4741814610077578063715018a6146100c557806375ce8b83146100cf575b600080fd5b6100b36004803603608081101561008d57600080fd5b506001600160a01b0381358116916020810135909116906040810135906060013561019d565b60408051918252519081900360200190f35b6100cd6104e4565b005b6100b3600480360360c08110156100e557600080fd5b506001600160a01b03813581169160208101358216916040820135169060608101359060808101359060a001356105a5565b61011f610946565b604080516001600160a01b039092168252519081900360200190f35b6100b36004803603608081101561015157600080fd5b506001600160a01b03813581169160208101359091169060408101359060600135610955565b6100cd6004803603602081101561018d57600080fd5b50356001600160a01b0316610c62565b60006101a7610d79565b6000546001600160a01b03908116911614610209576040805162461bcd60e51b815260206004820181905260248201527f4f776e61626c653a2063616c6c6572206973206e6f7420746865206f776e6572604482015290519081900360640190fd5b6001600160a01b038516610264576040805162461bcd60e51b815260206004820152601960248201527f536f757263652061646472657373206973206e6f742073657400000000000000604482015290519081900360640190fd5b6001600160a01b0384166102bf576040805162461bcd60e51b815260206004820152601860248201527f546f6b656e2061646472657373206973206e6f74207365740000000000000000604482015290519081900360640190fd5b60008311610308576040805162461bcd60e51b8152602060048201526011602482015270105b5bdd5b9d081a5cc81b9bdd081cd95d607a1b604482015290519081900360640190fd5b6001600160a01b038416600090815260026020526040902054831115610375576040805162461bcd60e51b815260206004820152601a60248201527f496e73756666696369656e7420746f6b656e2062616c616e6365000000000000604482015290519081900360640190fd5b6000610387848463ffffffff610d7d16565b6001600160a01b0386166000908152600260205260409020549091506103b3908263ffffffff610d7d16565b6001600160a01b038087166000908152600260205260409020919091556001546103e09188911686610dc6565b821561046c576001546003546040805163a9059cbb60e01b81526001600160a01b039283166004820152602481018790529051919092169163a9059cbb9160448083019260209291908290030181600087803b15801561043f57600080fd5b505af1158015610453573d6000803e3d6000fd5b505050506040513d602081101561046957600080fd5b50505b6104866001600160a01b038616878363ffffffff610f3b16565b846001600160a01b0316866001600160a01b03167f5cdf07ad0fc222442720b108e3ed4c4640f0fadc2ab2253e66f259a0fea834808684604051808381526020018281526020019250505060405180910390a390505b949350505050565b6104ec610d79565b6000546001600160a01b0390811691161461054e576040805162461bcd60e51b815260206004820181905260248201527f4f776e61626c653a2063616c6c6572206973206e6f7420746865206f776e6572604482015290519081900360640190fd5b600080546040516001600160a01b03909116907f8be0079c531659141344cd1fd0a4f28419497f9722a3daafe3b4186f6b6457e0908390a36000805473ffffffffffffffffffffffffffffffffffffffff19169055565b60006105af610d79565b6000546001600160a01b03908116911614610611576040805162461bcd60e51b815260206004820181905260248201527f4f776e61626c653a2063616c6c6572206973206e6f7420746865206f776e6572604482015290519081900360640190fd5b6001600160a01b03871661066c576040805162461bcd60e51b815260206004820152601960248201527f536f757263652061646472657373206973206e6f742073657400000000000000604482015290519081900360640190fd5b6001600160a01b0386166106c7576040805162461bcd60e51b815260206004820152601660248201527f496e70757420746f6b656e206973206e6f742073657400000000000000000000604482015290519081900360640190fd5b6001600160a01b038516610722576040805162461bcd60e51b815260206004820152601760248201527f4f757470757420746f6b656e206973206e6f7420736574000000000000000000604482015290519081900360640190fd5b6000841161076b576040805162461bcd60e51b8152602060048201526011602482015270105b5bdd5b9d081a5cc81b9bdd081cd95d607a1b604482015290519081900360640190fd5b6001600160a01b0385166000908152600260205260409020548411156107d8576040805162461bcd60e51b815260206004820152601b60248201527f496e73756666696369656e74206f75747075742062616c616e63650000000000604482015290519081900360640190fd5b60006107ea858563ffffffff610d7d16565b905060006107fe828563ffffffff610d7d16565b6001600160a01b03891660009081526002602052604090205490915061082a908363ffffffff610fa716565b6001600160a01b03808a16600090815260026020526040808220939093559089168152205461085f908263ffffffff610d7d16565b6001600160a01b038816600090815260026020526040902055610883898988610dc6565b84156108a3576108a36001600160a01b038916898763ffffffff610f3b16565b83156108c3576108c36001600160a01b038816888663ffffffff610f3b16565b6108dd6001600160a01b0388168a8363ffffffff610f3b16565b866001600160a01b0316886001600160a01b03168a6001600160a01b03167f6782190c91d4a7e8ad2a867deed6ec0a970cab8ff137ae2bd4abd92b3810f4d38985604051808381526020018281526020019250505060405180910390a498975050505050505050565b6000546001600160a01b031690565b600061095f610d79565b6000546001600160a01b039081169116146109c1576040805162461bcd60e51b815260206004820181905260248201527f4f776e61626c653a2063616c6c6572206973206e6f7420746865206f776e6572604482015290519081900360640190fd5b6001600160a01b038516610a1c576040805162461bcd60e51b815260206004820152601960248201527f536f757263652061646472657373206973206e6f742073657400000000000000604482015290519081900360640190fd5b6001600160a01b038416610a77576040805162461bcd60e51b815260206004820152601860248201527f546f6b656e2061646472657373206973206e6f74207365740000000000000000604482015290519081900360640190fd5b60008311610ac0576040805162461bcd60e51b8152602060048201526011602482015270105b5bdd5b9d081a5cc81b9bdd081cd95d607a1b604482015290519081900360640190fd5b610acb858585610dc6565b6001600160a01b038416600090815260026020526040902054610af4908463ffffffff610fa716565b6001600160a01b038516600090815260026020526040812091909155610b20848463ffffffff610d7d16565b90508215610b9957600154600354604080516340c10f1960e01b81526001600160a01b03928316600482015260248101879052905191909216916340c10f1991604480830192600092919082900301818387803b158015610b8057600080fd5b505af1158015610b94573d6000803e3d6000fd5b505050505b600154604080516340c10f1960e01b81526001600160a01b03898116600483015260248201859052915191909216916340c10f1991604480830192600092919082900301818387803b158015610bee57600080fd5b505af1158015610c02573d6000803e3d6000fd5b50505050846001600160a01b0316866001600160a01b03167f03f17d66ad3bf18e9412eb06582908831508cdb9b8da9cddb1431f645a5b86328684604051808381526020018281526020019250505060405180910390a395945050505050565b610c6a610d79565b6000546001600160a01b03908116911614610ccc576040805162461bcd60e51b815260206004820181905260248201527f4f776e61626c653a2063616c6c6572206973206e6f7420746865206f776e6572604482015290519081900360640190fd5b6001600160a01b038116610d115760405162461bcd60e51b81526004018080602001828103825260268152602001806113886026913960400191505060405180910390fd5b600080546040516001600160a01b03808516939216917f8be0079c531659141344cd1fd0a4f28419497f9722a3daafe3b4186f6b6457e091a36000805473ffffffffffffffffffffffffffffffffffffffff19166001600160a01b0392909216919091179055565b3390565b6000610dbf83836040518060400160405280601e81526020017f536166654d6174683a207375627472616374696f6e206f766572666c6f770000815250611001565b9392505050565b604080516370a0823160e01b815230600482015290516000916001600160a01b038516916370a0823191602480820192602092909190829003018186803b158015610e1057600080fd5b505afa158015610e24573d6000803e3d6000fd5b505050506040513d6020811015610e3a57600080fd5b50519050610e596001600160a01b03841685308563ffffffff61109816565b604080516370a0823160e01b815230600482015290516000916001600160a01b038616916370a0823191602480820192602092909190829003018186803b158015610ea357600080fd5b505afa158015610eb7573d6000803e3d6000fd5b505050506040513d6020811015610ecd57600080fd5b5051905080610ee2838563ffffffff610fa716565b14610f34576040805162461bcd60e51b815260206004820152601960248201527f496e636f7272656374207472616e7366657220616d6f756e7400000000000000604482015290519081900360640190fd5b5050505050565b604080516001600160a01b038416602482015260448082018490528251808303909101815260649091019091526020810180517bffffffffffffffffffffffffffffffffffffffffffffffffffffffff1663a9059cbb60e01b179052610fa2908490611126565b505050565b600082820183811015610dbf576040805162461bcd60e51b815260206004820152601b60248201527f536166654d6174683a206164646974696f6e206f766572666c6f770000000000604482015290519081900360640190fd5b600081848411156110905760405162461bcd60e51b81526004018080602001828103825283818151815260200191508051906020019080838360005b8381101561105557818101518382015260200161103d565b50505050905090810190601f1680156110825780820380516001836020036101000a031916815260200191505b509250505060405180910390fd5b505050900390565b604080516001600160a01b0380861660248301528416604482015260648082018490528251808303909101815260849091019091526020810180517bffffffffffffffffffffffffffffffffffffffffffffffffffffffff167f23b872dd00000000000000000000000000000000000000000000000000000000179052611120908590611126565b50505050565b606061117b826040518060400160405280602081526020017f5361666545524332303a206c6f772d6c6576656c2063616c6c206661696c6564815250856001600160a01b03166111d79092919063ffffffff16565b805190915015610fa25780806020019051602081101561119a57600080fd5b5051610fa25760405162461bcd60e51b815260040180806020018281038252602a8152602001806113ae602a913960400191505060405180910390fd5b60606104dc848460008560606111ec8561134e565b61123d576040805162461bcd60e51b815260206004820152601d60248201527f416464726573733a2063616c6c20746f206e6f6e2d636f6e7472616374000000604482015290519081900360640190fd5b60006060866001600160a01b031685876040518082805190602001908083835b6020831061127c5780518252601f19909201916020918201910161125d565b6001836020036101000a03801982511681845116808217855250505050505090500191505060006040518083038185875af1925050503d80600081146112de576040519150601f19603f3d011682016040523d82523d6000602084013e6112e3565b606091505b509150915081156112f75791506104dc9050565b8051156113075780518082602001fd5b60405162461bcd60e51b815260206004820181815286516024840152865187939192839260440191908501908083836000831561105557818101518382015260200161103d565b6000813f7fc5d2460186f7233c927e7db2dcc703c0e500b653ca82273b7bfad8045d85a4708181148015906104dc57505015159291505056fe4f776e61626c653a206e6577206f776e657220697320746865207a65726f20616464726573735361666545524332303a204552433230206f7065726174696f6e20646964206e6f742073756363656564a2646970667358221220aca10c5cbed7c120882c67aacd69ea2a620bdfbfe42dafb70bb005d78d20e1b964736f6c63430006080033",
  "source": "// SPDX-License-Identifier: Apache-2.0\npragma solidity 0.6.8;\n\nimport \"@openzeppelin/contracts/math/SafeMath.sol\";\nimport \"@openzeppelin/contracts/access/Ownable.sol\";\nimport \"@openzeppelin/contracts/token/ERC20/IERC20.sol\";\nimport \"@openzeppelin/contracts/token/ERC20/SafeERC20.sol\";\nimport \"./BasketToken.sol\";\n\n/**\n * @notice Core of the composite token basket.\n * @dev The main functionality of BasketCore is to maintain the following invariant:\n *          Total supply of basket token = Sum of token balances\n * @dev BasketCore is the owner of BasketToken, so it mints and burns BasketToken.\n * It does not manage the token basket which is the responsibility of BasketManager.\n * @dev BasketCore only handle one-to-one minting, redemption and swap. \n */\ncontract BasketCore is Ownable {\n\n    using SafeMath for uint256;\n    using SafeERC20 for IERC20;\n\n    event Minted(address indexed sourceAddress, address indexed tokenAddress, uint256 amount, uint256 mintAmount);\n    event Redeemed(address indexed sourceAddress, address indexed tokenAddress, uint256 amount, uint256 redemptionAmount);\n    event Swapped(address indexed sourceAddress, address indexed inputToken, address indexed outputToken, uint256 inputAmount, uint256 outputAmount);\n\n    BasketToken private _basketToken;\n    mapping(address => uint256) private _tokenBalances;\n    address private _feeAddress;\n\n    /**\n     * @dev Mints new basket token by depositing underlying asset. For minting, if there is any mint fee,\n     * it must be charged with the basket token.\n     * @param sourceAddress The address of the user who mints new basket tokens.\n     * @param tokenAddress The address of the underlying asset deposited.\n     * @param amount The amount of underlying asset deposited.\n     * @param feeAmount The amount fee charged on minting.\n     * @return The amount of basket token minted.\n     */\n    function mint(address sourceAddress, address tokenAddress, uint256 amount, uint256 feeAmount) public onlyOwner returns (uint256) {\n        require(sourceAddress != address(0x0), \"Source address is not set\");\n        require(tokenAddress != address(0x0), \"Token address is not set\");\n        require(amount > 0, \"Amount is not set\");\n\n        _safeTransferIn(sourceAddress, tokenAddress, amount);\n        _tokenBalances[tokenAddress] = _tokenBalances[tokenAddress].add(amount);\n\n        uint256 mintAmount = amount.sub(feeAmount);\n        if (feeAmount > 0) {\n            // If there is any minting fee, it must be charged using basket token!\n            _basketToken.mint(_feeAddress, feeAmount);\n        }\n        _basketToken.mint(sourceAddress, mintAmount);\n        emit Minted(sourceAddress, tokenAddress, amount, mintAmount);\n\n        return mintAmount;\n    }\n\n    /**\n     * @dev Redeems basket tokens and withdraws the underlying asset. For redemption, if there is any redemption fee,\n     * it must be charged with the basket token.\n     * @param sourceAddress The address of the user who redeems existing basket tokens.\n     * @param tokenAddress The address of the underlying asset to withdraw.\n     * @param amount The amount of basket token to redeem.\n     * @param feeAmount The amount of fee charged on redemption.\n     * @return The amount of underlying asset withdrawn.\n     */\n    function redeem(address sourceAddress, address tokenAddress, uint256 amount, uint256 feeAmount) public onlyOwner returns (uint256) {\n        require(sourceAddress != address(0x0), \"Source address is not set\");\n        require(tokenAddress != address(0x0), \"Token address is not set\");\n        require(amount > 0, \"Amount is not set\");\n        require(amount <= _tokenBalances[tokenAddress], \"Insufficient token balance\");\n\n        uint256 redemptionAmount = amount.sub(feeAmount);\n        _tokenBalances[tokenAddress] = _tokenBalances[tokenAddress].sub(redemptionAmount);\n\n        _safeTransferIn(sourceAddress, address(_basketToken), amount);\n        if (feeAmount > 0) {\n            // If there is any redemption fee, it must be charged using the basket token!\n            _basketToken.transfer(_feeAddress, feeAmount);\n        }\n        IERC20(tokenAddress).safeTransfer(sourceAddress, redemptionAmount);\n        emit Redeemed(sourceAddress, tokenAddress, amount, redemptionAmount);\n\n        return redemptionAmount;\n    }\n\n    /**\n     * @dev Swaps two underlying assets. The swap fee can be charged in either input token or output token.\n     * @param sourceAddress The address of the user who swaps underlying assets.\n     * @param inputToken The address of the input token.\n     * @param outputToken The address of the output token.\n     * @param amount The amount of input token to swap in.\n     * @param inputFee The amount of input token to pay as fee, if any.\n     * @param outputFee The amount of output token to pay as fee, if any.\n     * @return The amount of output token swap out.\n     */\n    function swap(address sourceAddress, address inputToken, address outputToken, uint256 amount, uint256 inputFee, uint256 outputFee) public onlyOwner returns (uint256) {\n        require(sourceAddress != address(0x0), \"Source address is not set\");\n        require(inputToken != address(0x0), \"Input token is not set\");\n        require(outputToken != address(0x0), \"Output token is not set\");\n        require(amount > 0, \"Amount is not set\");\n        require(_tokenBalances[outputToken] >= amount, \"Insufficient output balance\");\n\n        uint256 amountMinusInputFee = amount.sub(inputFee);\n        uint256 outputAmount = amountMinusInputFee.sub(outputFee);\n        _tokenBalances[inputToken] = _tokenBalances[inputToken].add(amountMinusInputFee);\n        _tokenBalances[outputToken] = _tokenBalances[outputToken].sub(outputAmount);\n\n        _safeTransferIn(sourceAddress, inputToken, amount);\n        if (inputFee > 0) {\n            // If there is any swap fee charged with input token\n            IERC20(inputToken).safeTransfer(inputToken, inputFee);\n        }\n        if (outputFee > 0) {\n            // If there is any swap fee charged with output token\n            IERC20(outputToken).safeTransfer(outputToken, outputFee);\n        }\n        IERC20(outputToken).safeTransfer(sourceAddress, outputAmount);\n        emit Swapped(sourceAddress, inputToken, outputToken, amount, outputAmount);\n\n        return outputAmount;\n    }\n\n    /**\n     * @dev Safely transfer token from source address.\n     */\n    function _safeTransferIn(address sourceAddress, address tokenAddress, uint256 amount) internal {\n        uint256 prevBalance = IERC20(tokenAddress).balanceOf(address(this));\n        IERC20(tokenAddress).safeTransferFrom(sourceAddress, address(this), amount);\n        uint256 currBalance = IERC20(tokenAddress).balanceOf(address(this));\n        require(prevBalance.add(amount) == currBalance, \"Incorrect transfer amount\");\n    }\n}",
  "sourcePath": "/Users/shengdading/git/acBTC/contracts/BasketCore.sol",
  "compiler": {
    "name": "solc",
    "version": "0.6.8+commit.0bbfe453.Emscripten.clang"
  },
  "schemaVersion": "3.0.23",
  "updatedAt": "2020-08-22T18:26:26.782Z",
  "devdoc": {
    "details": "The main functionality of BasketCore is to maintain the following invariant:         Total supply of basket token = Sum of token balancesBasketCore is the owner of BasketToken, so it mints and burns BasketToken. It does not manage the token basket which is the responsibility of BasketManager.BasketCore only handle one-to-one minting, redemption and swap. ",
    "methods": {
      "mint(address,address,uint256,uint256)": {
        "details": "Mints new basket token by depositing underlying asset. For minting, if there is any mint fee, it must be charged with the basket token.",
        "params": {
          "amount": "The amount of underlying asset deposited.",
          "feeAmount": "The amount fee charged on minting.",
          "sourceAddress": "The address of the user who mints new basket tokens.",
          "tokenAddress": "The address of the underlying asset deposited."
        },
        "returns": {
          "_0": "The amount of basket token minted."
        }
      },
      "owner()": {
        "details": "Returns the address of the current owner."
      },
      "redeem(address,address,uint256,uint256)": {
        "details": "Redeems basket tokens and withdraws the underlying asset. For redemption, if there is any redemption fee, it must be charged with the basket token.",
        "params": {
          "amount": "The amount of basket token to redeem.",
          "feeAmount": "The amount of fee charged on redemption.",
          "sourceAddress": "The address of the user who redeems existing basket tokens.",
          "tokenAddress": "The address of the underlying asset to withdraw."
        },
        "returns": {
          "_0": "The amount of underlying asset withdrawn."
        }
      },
      "renounceOwnership()": {
        "details": "Leaves the contract without owner. It will not be possible to call `onlyOwner` functions anymore. Can only be called by the current owner.     * NOTE: Renouncing ownership will leave the contract without an owner, thereby removing any functionality that is only available to the owner."
      },
      "swap(address,address,address,uint256,uint256,uint256)": {
        "details": "Swaps two underlying assets. The swap fee can be charged in either input token or output token.",
        "params": {
          "amount": "The amount of input token to swap in.",
          "inputFee": "The amount of input token to pay as fee, if any.",
          "inputToken": "The address of the input token.",
          "outputFee": "The amount of output token to pay as fee, if any.",
          "outputToken": "The address of the output token.",
          "sourceAddress": "The address of the user who swaps underlying assets."
        },
        "returns": {
          "_0": "The amount of output token swap out."
        }
      },
      "transferOwnership(address)": {
        "details": "Transfers ownership of the contract to a new account (`newOwner`). Can only be called by the current owner."
      }
    }
  },
  "userdoc": {
    "methods": {},
    "notice": "Core of the composite token basket."
  }
}