{
  "contractName": "FeeReceiver",
  "abi": [
    {
      "anonymous": false,
      "inputs": [
        {
          "indexed": true,
          "internalType": "address",
          "name": "feeToken",
          "type": "address"
        },
        {
          "indexed": false,
          "internalType": "uint256",
          "name": "feeAmount",
          "type": "uint256"
        }
      ],
      "name": "FeeReceived",
      "type": "event"
    },
    {
      "inputs": [
        {
          "internalType": "address",
          "name": "feeToken",
          "type": "address"
        },
        {
          "internalType": "uint256",
          "name": "feeAmount",
          "type": "uint256"
        }
      ],
      "name": "onFeeReceived",
      "outputs": [],
      "stateMutability": "nonpayable",
      "type": "function"
    }
  ],
  "bytecode": "0x6080604052348015600f57600080fd5b5060eb8061001e6000396000f3fe6080604052348015600f57600080fd5b506004361060285760003560e01c806369e330ec14602d575b600080fd5b606360048036036040811015604157600080fd5b5073ffffffffffffffffffffffffffffffffffffffff81351690602001356065565b005b60408051828152905173ffffffffffffffffffffffffffffffffffffffff8416917fbb527541f6cc244ae00ab689f8c23d072a30a3b4176021df62ea1c2bac8aa226919081900360200190a2505056fea2646970667358221220bff58467a966bb3214ef7f8292cfb18f9ff2970b22af857e6a2c56c1bf7beafd64736f6c63430006080033",
  "source": "// SPDX-License-Identifier: Apache-2.0\npragma solidity 0.6.8;\n\nimport \"./IFeeReceiver.sol\";\n\n/**\n * @notice Contract that receives fees from BasketCore.\n */\ncontract FeeReceiver is IFeeReceiver {\n\n    event FeeReceived(address indexed feeToken, uint256 feeAmount);\n\n    /**\n     * @dev Hook on fee received.\n     * @param feeToken The address of the token paid as fee\n     * @param feeAmount The amount of fee token\n     */\n    function onFeeReceived(address feeToken, uint256 feeAmount) public override {\n        emit FeeReceived(feeToken, feeAmount);\n    }\n}",
  "sourcePath": "/Users/shengdading/git/acBTC/contracts/receiver/FeeReceiver.sol",
  "compiler": {
    "name": "solc",
    "version": "0.6.8+commit.0bbfe453.Emscripten.clang"
  },
  "schemaVersion": "3.0.23",
  "updatedAt": "2020-08-23T08:51:50.738Z",
  "devdoc": {
    "methods": {
      "onFeeReceived(address,uint256)": {
        "details": "Hook on fee received.",
        "params": {
          "feeAmount": "The amount of fee token",
          "feeToken": "The address of the token paid as fee"
        }
      }
    }
  },
  "userdoc": {
    "methods": {},
    "notice": "Contract that receives fees from BasketCore."
  }
}